:020000040000FA
:100000000C9463000C948B000C948B000C94B5073B
:100010000C94B5070C94B5070C948B000C948B00D2
:100020000C948B000C948B000C948B000C948B0024
:100030000C948B000C948B000C948B000C948B0014
:100040000C946B070C948B000C9439070C941307D9
:100050000C948B000C948B000C948B000C948B00F4
:100060000C942D080C948B00000000002400270045
:100070002A0000000008000201000003040700003D
:1000800000000000000000000000230026002900FE
:1000900000000000250028002B00040404040404D0
:1000A0000404020202020202030303030303010227
:1000B00004081020408001020408102001020408F6
:1000C00010204C09840C11241FBECFEFD8E0DEBFF6
:1000D000CDBF11E0A0E0B1E0EAEFF9E102C0059088
:1000E0000D92AE3CB107D9F723E0AEECB1E001C010
:1000F0001D92A13BB207E1F710E0C2E6D0E004C0D8
:100100002197FE010E94EA0CC136D107C9F70E946F
:100110001C0A0C94F00C0C94000008950895AF9202
:10012000BF92CF92DF92EF92FF920F931F93CF93E4
:10013000DF936C017B018B01040F151FEB015E0146
:10014000AE18BF08C017D10759F06991D601ED91DB
:10015000FC910190F081E02DC6010995892B79F77A
:10016000C501DF91CF911F910F91FF90EF90DF902C
:10017000CF90BF90AF900895FC01538D448D252FF3
:1001800030E0842F90E0821B930B541710F0CF9631
:10019000089501970895FC01918D828D981761F063
:1001A000A28DAE0FBF2FB11D5D968C91928D9F5F7A
:1001B0009F73928F90E008958FEF9FEF0895FC0159
:1001C000918D828D981731F0828DE80FF11D858D0C
:1001D00090E008958FEF9FEF0895FC01918D228D9F
:1001E000892F90E0805C9F4F821B91098F73992724
:1001F00008958DED92E00E94ED0021E0892B09F435
:1002000020E0822F089580E090E0892B29F00E9461
:10021000F90081110C9400000895FC01A48DA80F31
:10022000B92FB11DA35ABF4F2C91848D90E0019638
:100230008F739927848FA689B7892C93A089B18958
:100240008C91837080648C93938D848D981306C0F9
:100250000288F389E02D80818F7D80830895EF925D
:10026000FF920F931F93CF93DF93EC0181E0888F70
:100270009B8D8C8D98131AC0E889F989808185FF40
:1002800015C09FB7F894EE89FF896083E889F989E2
:1002900080818370806480839FBF81E090E0DF91E4
:1002A000CF911F910F91FF90EF900895F62E0B8D37
:1002B00010E00F5F1F4F0F731127E02E8C8D8E11F2
:1002C0000CC00FB607FCFACFE889F989808185FF59
:1002D000F5CFCE010E940D01F1CFEB8DEC0FFD2F7C
:1002E000F11DE35AFF4FF0829FB7F8940B8FEA8914
:1002F000FB8980818062CFCFCF93DF93EC01888D23
:100300008823B9F0AA89BB89E889F9898C9185FD90
:1003100003C0808186FD0DC00FB607FCF7CF8C911E
:1003200085FFF2CF808185FFEDCFCE010E940D01C8
:10033000E9CFDF91CF910895833081F028F48130A7
:1003400099F08230A9F008958730A9F08830C9F07B
:100350008430B1F4809180008F7D03C08091800053
:100360008F7780938000089584B58F7784BD08953A
:1003700084B58F7DFBCF8091B0008F778093B000E4
:1003800008958091B0008F7DF9CFCF93DF93282F10
:1003900030E0F901EE58FF4F8491F901E255FF4F2B
:1003A000D491F901E656FF4FC491CC23A1F08111FD
:1003B0000E949C01EC2FF0E0EE0FFF1FEA57FF4F69
:1003C000A591B491EC91ED2381E090E009F480E0F7
:1003D000DF91CF91089580E090E0FACF1F93CF9303
:1003E000DF93282F30E0F901EE58FF4F8491F90197
:1003F000E255FF4FD491F901E656FF4FC491CC234B
:10040000A9F0162F81110E949C01EC2FF0E0EE0F55
:10041000FF1FE057FF4FA591B4918FB7F894EC916F
:10042000111108C0D095DE23DC938FBFDF91CF91EF
:100430001F910895DE2BF8CFCF93DF9390E0FC015E
:10044000E255FF4F249186569F4FFC0184918823EB
:10045000D1F090E0880F991FFC01E859FF4FA5915A
:10046000B491FC01E057FF4FC591D49161110EC0CA
:100470009FB7F8948C91E22FE0958E238C9328817E
:10048000E223E8839FBFDF91CF9108958FB7F8945F
:10049000EC91E22BEC938FBFF6CF3FB7F8948091AD
:1004A000C9029091CA02A091CB02B091CC0226B5AC
:1004B000A89B05C02F3F19F00196A11DB11D3FBF9C
:1004C000BA2FA92F982F8827BC01CD01620F711D6B
:1004D000811D911D42E0660F771F881F991F4A9565
:1004E000D1F708958F929F92AF92BF92CF92DF92F1
:1004F000EF92FF924B015C010E944D026B017C0167
:100500000E944D026C197D098E099F09683E734057
:1005100081059105A8F321E0821A9108A108B1088C
:1005200088EEC80E83E0D81EE11CF11C81149104F2
:10053000A104B10429F7FF90EF90DF90CF90BF9016
:10054000AF909F908F9008952091C2023091C30286
:100550002817390771F49091C1028091C002981751
:1005600041F0E091C102F0E0E058FD4F808190E061
:1005700008958FEF9FEF08950895EF92FF920F93E4
:100580001F93CF93DF93DC015C96ED90FC905D9719
:10059000E114F10479F481E090E013969C938E933A
:1005A000129790E080E0DF91CF911F910F91FF9023
:1005B000EF9008955196ED91FC91529750968C9141
:1005C0005097982F90950FB75E962C915E97122FAB
:1005D000127021FD6095F8942081112319F1282BC8
:1005E0002083E7012197F1F728E0462F50E0308182
:1005F00060FF1AC0382B3083E7012197F1F7BA0169
:1006000075956795215089F7112381F080818923A1
:1006100080830FBF5C968D919C910197F1F781E0EB
:1006200090E0C1CF2923DCCF3923E5CF9081892BFE
:10063000EFCF2091C2023091C3022817390771F41D
:100640008091C0022091C10290E0805C9F4F821B8C
:10065000910960E470E00E94A00C089590E080E0B1
:1006600008952091C2023091C30228173907B9F4C6
:100670009091C1028091C002981789F0E091C10267
:10068000F0E0E058FD4F80812091C10230E02F5F03
:100690003F4F2F7333272093C10290E008958FEFCF
:1006A0009FEF0895089520910F02260F3327331FDF
:1006B00021323105ECF420915802FC0190E080E0F9
:1006C000243069F082E00895A0910F022191AC01DD
:1006D00041515E4FA40FB52FB11D2C930196861783
:1006E00098F380910F02680F60930F0280E00895E5
:1006F00081E008951092580281E080935702109291
:10070000320261E082E10E94EE0161E083E10E9439
:10071000EE01E9EBF0E080818E7F808380818D7F28
:10072000808388E48093B80085E48093BC000895BA
:10073000CF93DF9391E09093EE018823B9F0C091BD
:10074000B800D091BA008091BC008A7B8093BC0035
:1007500060E082E10E94EE0160E083E10E94EE0130
:100760000E947A03D093BA00C093B800DF91CF9172
:100770000895E091D4028091D302E81730F4F0E0BC
:10078000E253FE4F808190E008958FEF9FEF089530
:100790009091D4028091D3022FEF3FEF981748F445
:1007A000E92FF0E0E253FE4F208130E09F5F90930D
:1007B000D402C90108958091D3029091D402891B7B
:1007C000990B0895CF92DF92EF92FF920F931F93B0
:1007D000CF93DF937C01CB018A0120915E0222231B
:1007E00089F0EB016B01C40ED51ECC15DD0569F057
:1007F0006991D701ED91FC910190F081E02DC70145
:100800000995F3CF642F0E945303C801DF91CF9164
:100810001F910F91FF90EF90DF90CF900895CF93AD
:10082000DF931F92CDB7DEB7698320915E0222234A
:10083000F9F02091D102203258F021E030E0FC01A3
:100840003383228390E080E00F90DF91CF91089571
:100850008091D202E82FF0E0E15AFD4F9981908318
:100860008F5F8093D2028093D10281E090E0ECCF41
:1008700061E0CE0101960E945303F7CFCF92DF9241
:10088000EF92FF920F931F93CF93DF93FC01C481EC
:1008900021E020935E02C0937F021092D202109258
:1008A000D1028385682B8AE793E00E940F04D091E0
:1008B000D102D13208F092C00E944D026B017C013E
:1008C00080915802811165C082E08093580281E0D6
:1008D000809357028FEF8093560210925502D09367
:1008E0005402AFE5B2E0E4E3F2E080E0D81385C063
:1008F0001092330280913302CC0FC82BC093330285
:1009000080913202813009F07CC0109232020E9444
:100910004D026B017C01809133028093BB0080917A
:100920005A0290915B02A0915C02B0915D02892B0A
:100930008A2B8B2B99F00E944D0200915A02109144
:100940005B0220915C0230915D026C197D098E0979
:100950009F090617170728073907E0F18091BC00A7
:1009600083FDD9CF85EC8093BC000E944D026B01C2
:100970007C0180915802823009F445C08091560272
:100980008F3F61F180915602803241F18091560291
:1009900025C080915A0290915B02A0915C02B091B7
:1009A0005D02892B8A2B8B2B09F48ACF0E944D0282
:1009B00000915A0210915B0220915C0230915D021D
:1009C0006C197D098E099F09061717072807390733
:1009D00008F076CF809159020E9498031092D202BB
:1009E0001092D10210925E02DF91CF911F910F9170
:1009F000FF90EF90DF90CF9008959D9191938F5F3E
:100A000075CF85EEB0CF80915A0290915B02A09194
:100A10005C02B0915D02892B8A2B8B2B09F4A9CF44
:100A20000E944D0200915A0210915B0220915C02DB
:100A300030915D026C197D098E099F090617170711
:100A40002807390708F095CFC5CF90E080E00895DA
:100A500060E082E00E94EE0161E083E00E94EE012E
:100A600061E084E00E94EE0161E081E00E94EE011D
:100A700061E08AE00E94EE0168E873E180E090E0C6
:100A80000E94720260E08AE00E94EE0161E086E06E
:100A90000E94EE0168EE73E080E090E00E94720236
:100AA00060E086E00C94EE0160E081E00E94EE01DF
:100AB00061E083E00E94EE0161E084E00E94EE01CB
:100AC00061E089E00E94EE0161E082E00E94EE01B7
:100AD00068E873E180E090E00E94720260E089E0E3
:100AE0000E94EE0161E085E00E94EE0168EE73E095
:100AF00080E090E00E94720260E085E00C94EE01DC
:100B000060E084E00E94EE0161E083E00E94EE017B
:100B100061E08CE00E94EE0161E081E00E94EE0164
:100B200061E082E00E94EE0168E873E180E090E01D
:100B30000E94720260E08CE00E94EE0161E088E0B9
:100B40000E94EE0168EE73E080E090E00E94720285
:100B500060E088E00C94EE0160E083E00E94EE012A
:100B600061E08BE00E94EE0161E084E00E94EE0112
:100B700061E081E00E94EE0161E082E00E94EE010E
:100B800068E873E180E090E00E94720260E08BE030
:100B90000E94EE0161E087E00E94EE0168EE73E0E2
:100BA00080E090E00E94720260E087E00C94EE0129
:100BB0000F931F93CF938C01C62F0E943E046C2F7E
:100BC0006460C8010E943E046C2F6B7FC8010E94C4
:100BD0003E0483EC90E00197F1F7CF911F910F91C4
:100BE00008950F931F93CF93DF938C01D62FC42FBB
:100BF000607F642B0E94D80580E1D89FB00111244A
:100C00006C2BC801DF91CF911F910F910C94D805E7
:100C1000CF93DF93CDB7DEB728970FB6F894DEBF3A
:100C20000FBECDBF98E0E0E0F1E0DE01119601904B
:100C30000D929A95E1F79091AD03981708F48FEF14
:100C400090E0880F991F21E030E02C0F3D1F820FAC
:100C5000931FFC016081606840E085EA93E028967C
:100C60000FB6F894DEBF0FBECDBFDF91CF910C94CD
:100C7000F10541E00E94F10581E090E00895FB015B
:100C800001900020E9F73197AF01461B570BDC01BB
:100C9000ED91FC910280F381E02D09944F925F92D7
:100CA0006F927F928F929F92AF92BF92CF92DF927C
:100CB000EF92FF920F931F93CF93DF93CDB7DEB7E1
:100CC000A1970FB6F894DEBF0FBECDBF8C016B01AC
:100CD000770FEE08FF08F7FE49C0DC01ED91FC91AB
:100CE0000190F081E02D6DE209955C012227332708
:100CF000A9012C193D094E095F0919A2FE01B196FF
:100D00007F019AE0492E512C612C712CCA01B90146
:100D1000A30192010E94B40C605DD7016E937D0126
:100D2000211531054105510589F790E080E01097C4
:100D300021F0BD01C8010E943F068A0D9B1DA196AE
:100D40000FB6F894DEBF0FBECDBFDF91CF911F91DC
:100D50000F91FF90EF90DF90CF90BF90AF909F905A
:100D60008F907F906F905F904F900895A7019601AC
:100D700019A2FE01B1967F018AE0882E912CA12C48
:100D8000B12CCA01B901A50194010E94B40C605DA7
:100D9000D7016E937D01211531054105510589F774
:100DA00090E080E0109759F2BD01C8010E943F0613
:100DB000C6CF0C943F0685ED8093BC0080915A020B
:100DC00090915B02A0915C02B0915D020796A11D1B
:100DD000B11D23E0B695A795979587952A95D1F7EC
:100DE0002091BC0024FD03C0109258020895409148
:100DF0005A0250915B0260915C0270915D02452B3A
:100E0000462B472B69F30097A105B10541F025E377
:100E10002A95F1F700000197A109B109E1CF80916E
:100E200059020C9498031F920F920FB60F9211243F
:100E30002F933F934F935F936F937F938F939F93E2
:100E4000AF93BF93EF93FF938DED92E00E940D015E
:100E5000FF91EF91BF91AF919F918F917F916F9192
:100E60005F914F913F912F910F900FBE0F901F9068
:100E700018951F920F920FB60F9211242F938F93F4
:100E80009F93EF93FF93E091ED02F091EE0280814A
:100E9000E091F302F091F40282FD1BC090818091F9
:100EA000F6028F5F8F732091F702821741F0E09175
:100EB000F602F0E0E352FD4F958F8093F602FF912A
:100EC000EF919F918F912F910F900FBE0F901F90D8
:100ED00018958081F4CF1F920F920FB60F921124B4
:100EE0002F933F938F939F93AF93BF938091C502AE
:100EF0009091C602A091C702B091C8023091C4027D
:100F000023E0230F2D3758F50196A11DB11D209325
:100F1000C4028093C5029093C602A093C702B09307
:100F2000C8028091C9029091CA02A091CB02B091EF
:100F3000CC020196A11DB11D8093C9029093CA02F3
:100F4000A093CB02B093CC02BF91AF919F918F91B0
:100F50003F912F910F900FBE0F901F90189526E88C
:100F6000230F0296A11DB11DD2CF1F920F920FB673
:100F70000F9211242F933F934F935F936F937F931F
:100F80008F939F93AF93BF93EF93FF93E091C20230
:100F9000F091C302309749F0A685B7858585968D77
:100FA00091FF14C09C918923A1F4FF91EF91BF910F
:100FB000AF919F918F917F916F915F914F913F91F1
:100FC0002F910F900FBE0F901F9018959C91892321
:100FD00061F7A389B4899C918589809589238C9335
:100FE000868997890197F1F7608D718DA685B78500
:100FF000558538E020E0CB010197F1F7822F90E092
:1010000095958795282F4C91452309F020683150FC
:1010100091F7868D81FD20958091C00290E0019628
:101020008F7399273091C102381799F0A091C002AF
:10103000B0E0A058BD4F2C938093C002828D938D59
:101040000197F1F7A389B4898C919589892B8C93A9
:10105000ACCF868D8160868FF1CF1F920F920FB635
:101060000F9211242F933F934F935F936F937F932E
:101070008F939F93AF93BF93EF93FF938091B900AA
:10108000887F803609F44AC0F0F5883209F4A7C099
:1010900018F5803109F49BC0B8F4882309F4F9C02D
:1010A000883009F494C0FF91EF91BF91AF919F9167
:1010B0008F917F916F915F914F913F912F910F9001
:1010C0000FBE0F901F901895883109F488C08032A8
:1010D00051F78093560214C0803409F49DC040F447
:1010E0008033B9F38833F9F68093560285ECB0C0AB
:1010F000803509F485C0883509F496C0883499F69E
:101100000E94DB06D0CF883909F48CC038F58837C7
:1011100029F050F4883611F0803729F683E0809367
:1011200058021092310257C0883809F47BC08039C8
:1011300019F0803809F0B7CF80913102803208F081
:1011400071C0E091310281E08E0F80933102809175
:10115000BB00F0E0EF5EFD4F80833DC0803B39F087
:10116000E0F4803A09F479C0883A09F09CCF84E031
:10117000809358021092100210920F02E091CF0259
:10118000F091D002099580910F0281110FC081E08A
:1011900080930F021092EF0109C0803C09F4A6CFA2
:1011A000883C09F4A3CF883B09F07DCFE091100281
:1011B00081E08E0F80931002F0E0E151FE4F8081BC
:1011C0008093BB009091100280910F0229C0809102
:1011D00033028093BB0085EC8093BC0064CF909178
:1011E000550280915402981758F5E091550281E01C
:1011F0008E0F80935502F0E0EC5CFD4F8081E9CFCB
:10120000E091550281E08E0F809355028091BB00E2
:10121000F0E0EC5CFD4F8083909155028091540288
:101220009817C8F285E8D8CFE091550281E08E0F7B
:10123000809355028091BB00F0E0EC5CFD4F808311
:101240008091570281115CCF81E08093320284EA61
:101250008093BC001092580226CF85EC8093BC008E
:101260001092580280913102803230F4E0913102C4
:10127000F0E0EF5EFD4F10826091310270E0E0918E
:10128000CD02F091CE0281E192E0099510923102F7
:101290000ACF1092560234CF1092E0021092DF0271
:1012A00088EE93E0A0E0B0E08093E1029093E20248
:1012B000A093E302B093E4022CE031E03093DE022D
:1012C0002093DD0225EC30E03093EA022093E9021E
:1012D00024EC30E03093EC022093EB0220EC30E081
:1012E0003093EE022093ED0221EC30E03093F002D7
:1012F0002093EF0222EC30E03093F2022093F102CF
:1013000026EC30E03093F4022093F3021092F602C0
:101310001092F7021092F8021092F90210927D03D7
:1013200010927C0380937E0390937F03A0938003AD
:10133000B09381032EE131E030937B0320937A0355
:101340001092A8031092A70322E431E03093A60381
:101350002093A50327E22093A90320E12093AE0365
:1013600022E02093AF031092B003109289031092F1
:10137000880380938A0390938B03A0938C03B0938C
:101380008D0380E391E0909387038093860310920E
:101390009D0310929C0310929F0310929E03109243
:1013A000A1031092A0031092A3031092A2036091D4
:1013B000A4036E7F6D7F6093A4036695617081E0E6
:1013C00068270E94EE0161E081E00E941C02EFEAC2
:1013D000F0E0E491E0939603EBE9F0E0E491F0E0D3
:1013E000EE0FFF1FE057FF4F859194919093980364
:1013F0008093970360E080E00E941C028091A40328
:1014000081FD04C061E080E00E94EE011092920331
:10141000EEEAF0E0E491E0939303EAE9F0E0E4918E
:10142000F0E0EE0FFF1FEA57FF4F859194919093E4
:101430009503809394030895789484B5826084BD65
:1014400084B5816084BD85B5826085BD85B58160C8
:1014500085BD80916E00816080936E001092810046
:101460008091810082608093810080918100816001
:1014700080938100809180008160809380008091C2
:10148000B10084608093B1008091B000816080934E
:10149000B00080917A00846080937A0080917A0015
:1014A000826080937A0080917A00816080937A00D4
:1014B00080917A00806880937A001092C100E09158
:1014C000ED02F091EE0282E08083E091E902F0917A
:1014D000EA021082E091EB02F091EC028FEC808343
:1014E0001092F502E091F102F091F20286E0808321
:1014F000E091EF02F091F002808180618083E091C1
:10150000EF02F091F002808188608083E091EF0229
:10151000F091F002808180688083E091EF02F09189
:10152000F00280818F7D80831092D4021092D302CA
:101530001092D2021092D1020E947A038DE890E0BC
:101540009093D0028093CF028EE890E09093CE02E9
:101550008093CD021092AA038091AF03823018F0DD
:1015600098E09093AA038093AD0362E370E080E07B
:1015700090E00E9472026091B00385EA93E00E94BD
:101580003E0468EE73E080E090E00E94720260E347
:1015900085EA93E00E94D805CBE4D6E4CE0101971A
:1015A000F1F760E385EA93E00E94D8052197F1F70F
:1015B00060E385EA93E00E94D80583E592E0019715
:1015C000F1F760E285EA93E00E94D8056091AA03F2
:1015D000606240E085EA93E00E94F10584E0809338
:1015E000AB0340E06CE085EA93E00E94F10540E047
:1015F00061E085EA93E00E94F105CBE3DFE1CE01F3
:101600000197F1F782E08093AC0340E066E085EA61
:1016100093E00E94F10540E062E085EA93E00E94D9
:10162000F1052197F1F788E08093B00360E085EA47
:1016300093E00E943E0480E00E9408066AE471E0A4
:1016400085EA93E00E94D90681E00E9408066AE5D7
:1016500071E085EA93E00E94D90660ED77E080E0D2
:1016600090E00E94720261E08BE00E941C0261E047
:1016700087E00E941C0261E083E00E941C0261E09E
:101680008CE00E941C0261E088E00E941C0261E084
:1016900084E00E941C0261E089E00E941C0261E07B
:1016A00085E00E941C0261E081E00E941C0261E072
:1016B0008AE00E941C0261E086E00E941C0261E058
:1016C00082E00E941C0260E08EE00E941C0260E04A
:1016D0008FE00E941C0260E080E10E941C0260E03A
:1016E00081E10E941C028BE3C82E8FE1D82E90E08E
:1016F000A92E90E0B92E8EE00E94C5019093DC02E5
:101700008093DB028FE00E94C5019093DA02809300
:10171000D90280E10E94C5019093D8028093D7023C
:1017200081E10E94C5019093D6028093D50266E6BE
:1017300071E08DED92E00E94D9066091DB0270911C
:10174000DC028DED92E00E944E066AE771E08DEDBD
:1017500092E00E94D9066091D9027091DA028DED73
:1017600092E00E944E066FE771E08DED92E00E94DC
:10177000D9066091D7027091D8028DED92E00E9457
:101780004E0664E871E08DED92E00E94D90660910A
:10179000D5027091D6028DED92E00E944E0669E866
:1017A00071E08DED92E00E943F0640E061E085EA45
:1017B00093E00E94F105C6010197F1F780E00E94D5
:1017C00008066CE871E085EA93E00E94D906609112
:1017D000DB027091DC0285EA93E00E944E0663E929
:1017E00071E085EA93E00E94D9066091D902709178
:1017F000DA0285EA93E00E944E0681E00E94080624
:101800006BE971E085EA93E00E94D9066091D70206
:101810007091D80285EA93E00E944E0662EA71E078
:1018200085EA93E00E94D9066091D5027091D602B4
:1018300085EA93E00E944E068091DB029091DC02E3
:101840000197F1F48091D9029091DA020197C1F4E5
:101850008091D7029091D802019791F48091D5029E
:101860009091D602019761F46AEA71E08DED92E001
:101870000E943F0669E871E08DED92E00E943F060C
:10188000E090D902F090DA0281E0E816F10471F4F8
:101890000E948005A114B10409F42DCF0E94F90023
:1018A000882309F428CF0E94000025CFC091D502DB
:1018B000D091D602C130D10519F40E942805EACF93
:1018C0008090DB029090DC0281E08816910419F48C
:1018D0000E94AC05DFCF0091D7021091D8020130F1
:1018E000110519F40E945405D5CF0E94800589285E
:1018F00089F6EF2879F6012B69F6CD2B59F60E946F
:1019000028050E94AC05EECF80E391E09093870319
:10191000809386038091C2029091C30286589340BF
:1019200071F4E0919903F0919A03908180919B0367
:101930008095892380831092C3021092C202089579
:1019400097FB072E16F4009407D077FD09D00E946C
:10195000D60C07FC05D03EF4909581959F4F0895D5
:10196000709561957F4F0895A1E21A2EAA1BBB1BAB
:10197000FD010DC0AA1FBB1FEE1FFF1FA217B3075B
:10198000E407F50720F0A21BB30BE40BF50B661F71
:10199000771F881F991F1A9469F760957095809535
:1019A00090959B01AC01BD01CF010895AA1BBB1B03
:1019B00051E107C0AA1FBB1FA617B70710F0A61B4F
:1019C000B70B881F991F5A95A9F780959095BC0170
:1019D000CD010895EE0FFF1F0590F491E02D0994BD
:1019E00010E0C2E6D0E004C0FE010E94EA0C21969D
:1019F000C336D107C9F7F894FFCF000040001400A8
:101A00005400000000002F018F00BC007C01ED009D
:101A1000CB00DF00000000000F04E2032505BC023C
:101A2000DB03C803B90300000000BD028F002505D9
:101A3000BC0219033103A4020000000039068F0024
:101A4000250552035472616666696320436F6E74A4
:101A5000726F6C0053797374656D20496E69740000
:101A600053656E736F7220537461746573202D20FB
:101A7000413A200020423A200020433A20002044EE
:101A80003A20000D0A004C414E45413A00204C419D
:101A90004E45423A004C414E45433A00204C414E9F
:101AA00045443A00416C6C2049522073656E736F57
:101AB000727320686967682E205472616666696374
:081AC00020616C6572742100C5
:107E0000112484B714BE81FFF0D085E080938100F7
:107E100082E08093C00088E18093C10086E0809377
:107E2000C20080E18093C4008EE0C9D0259A86E02C
:107E300020E33CEF91E0309385002093840096BBD3
:107E4000B09BFECF1D9AA8958150A9F7CC24DD24C4
:107E500088248394B5E0AB2EA1E19A2EF3E0BF2EE7
:107E6000A2D0813461F49FD0082FAFD0023811F036
:107E7000013811F484E001C083E08DD089C08234E0
:107E800011F484E103C0853419F485E0A6D080C0E4
:107E9000853579F488D0E82EFF2485D0082F10E0AE
:107EA000102F00270E291F29000F111F8ED06801E7
:107EB0006FC0863521F484E090D080E0DECF843638
:107EC00009F040C070D06FD0082F6DD080E0C81688
:107ED00080E7D80618F4F601B7BEE895C0E0D1E017
:107EE00062D089930C17E1F7F0E0CF16F0E7DF06D8
:107EF00018F0F601B7BEE89568D007B600FCFDCFD4
:107F0000A601A0E0B1E02C9130E011968C91119780
:107F100090E0982F8827822B932B1296FA010C0160
:107F200087BEE89511244E5F5F4FF1E0A038BF0790
:107F300051F7F601A7BEE89507B600FCFDCF97BE46
:107F4000E89526C08437B1F42ED02DD0F82E2BD052
:107F50003CD0F601EF2C8F010F5F1F4F84911BD097
:107F6000EA94F801C1F70894C11CD11CFA94CF0C13
:107F7000D11C0EC0853739F428D08EE10CD085E9AC
:107F80000AD08FE07ACF813511F488E018D01DD067
:107F900080E101D065CF982F8091C00085FFFCCF94
:107FA0009093C60008958091C00087FFFCCF809118
:107FB000C00084FD01C0A8958091C6000895E0E648
:107FC000F0E098E1908380830895EDDF803219F02E
:107FD00088E0F5DFFFCF84E1DECF1F93182FE3DFCA
:107FE0001150E9F7F2DF1F91089580E0E8DFEE27F6
:047FF000FF270994CA
:027FFE00040479
:00000001FF
